{
  "abi": [
    {
      "inputs": [],
      "stateMutability": "nonpayable",
      "type": "constructor"
    },
    {
      "anonymous": false,
      "inputs": [
        {
          "indexed": true,
          "internalType": "address",
          "name": "owner",
          "type": "address"
        },
        {
          "indexed": true,
          "internalType": "address",
          "name": "approved",
          "type": "address"
        },
        {
          "indexed": true,
          "internalType": "uint256",
          "name": "tokenId",
          "type": "uint256"
        }
      ],
      "name": "Approval",
      "type": "event"
    },
    {
      "anonymous": false,
      "inputs": [
        {
          "indexed": true,
          "internalType": "address",
          "name": "owner",
          "type": "address"
        },
        {
          "indexed": true,
          "internalType": "address",
          "name": "operator",
          "type": "address"
        },
        {
          "indexed": false,
          "internalType": "bool",
          "name": "approved",
          "type": "bool"
        }
      ],
      "name": "ApprovalForAll",
      "type": "event"
    },
    {
      "anonymous": false,
      "inputs": [
        {
          "indexed": true,
          "internalType": "address",
          "name": "previousOwner",
          "type": "address"
        },
        {
          "indexed": true,
          "internalType": "address",
          "name": "newOwner",
          "type": "address"
        }
      ],
      "name": "OwnershipTransferred",
      "type": "event"
    },
    {
      "anonymous": false,
      "inputs": [
        {
          "indexed": true,
          "internalType": "address",
          "name": "from",
          "type": "address"
        },
        {
          "indexed": true,
          "internalType": "address",
          "name": "to",
          "type": "address"
        },
        {
          "indexed": true,
          "internalType": "uint256",
          "name": "tokenId",
          "type": "uint256"
        }
      ],
      "name": "Transfer",
      "type": "event"
    },
    {
      "inputs": [
        {
          "internalType": "address",
          "name": "to",
          "type": "address"
        },
        {
          "internalType": "uint256",
          "name": "tokenId",
          "type": "uint256"
        }
      ],
      "name": "approve",
      "outputs": [],
      "stateMutability": "nonpayable",
      "type": "function"
    },
    {
      "inputs": [
        {
          "internalType": "address",
          "name": "owner",
          "type": "address"
        }
      ],
      "name": "balanceOf",
      "outputs": [
        {
          "internalType": "uint256",
          "name": "",
          "type": "uint256"
        }
      ],
      "stateMutability": "view",
      "type": "function"
    },
    {
      "inputs": [],
      "name": "fees",
      "outputs": [
        {
          "internalType": "uint256",
          "name": "",
          "type": "uint256"
        }
      ],
      "stateMutability": "view",
      "type": "function"
    },
    {
      "inputs": [
        {
          "internalType": "uint256",
          "name": "tokenId",
          "type": "uint256"
        }
      ],
      "name": "getApproved",
      "outputs": [
        {
          "internalType": "address",
          "name": "",
          "type": "address"
        }
      ],
      "stateMutability": "view",
      "type": "function"
    },
    {
      "inputs": [
        {
          "internalType": "address",
          "name": "owner",
          "type": "address"
        },
        {
          "internalType": "address",
          "name": "operator",
          "type": "address"
        }
      ],
      "name": "isApprovedForAll",
      "outputs": [
        {
          "internalType": "bool",
          "name": "",
          "type": "bool"
        }
      ],
      "stateMutability": "view",
      "type": "function"
    },
    {
      "inputs": [],
      "name": "name",
      "outputs": [
        {
          "internalType": "string",
          "name": "",
          "type": "string"
        }
      ],
      "stateMutability": "view",
      "type": "function"
    },
    {
      "inputs": [],
      "name": "owner",
      "outputs": [
        {
          "internalType": "address",
          "name": "",
          "type": "address"
        }
      ],
      "stateMutability": "view",
      "type": "function"
    },
    {
      "inputs": [
        {
          "internalType": "uint256",
          "name": "tokenId",
          "type": "uint256"
        }
      ],
      "name": "ownerOf",
      "outputs": [
        {
          "internalType": "address",
          "name": "",
          "type": "address"
        }
      ],
      "stateMutability": "view",
      "type": "function"
    },
    {
      "inputs": [],
      "name": "renounceOwnership",
      "outputs": [],
      "stateMutability": "nonpayable",
      "type": "function"
    },
    {
      "inputs": [
        {
          "internalType": "address",
          "name": "to",
          "type": "address"
        },
        {
          "internalType": "string",
          "name": "uri",
          "type": "string"
        }
      ],
      "name": "safeMint",
      "outputs": [],
      "stateMutability": "payable",
      "type": "function"
    },
    {
      "inputs": [
        {
          "internalType": "address",
          "name": "from",
          "type": "address"
        },
        {
          "internalType": "address",
          "name": "to",
          "type": "address"
        },
        {
          "internalType": "uint256",
          "name": "tokenId",
          "type": "uint256"
        }
      ],
      "name": "safeTransferFrom",
      "outputs": [],
      "stateMutability": "nonpayable",
      "type": "function"
    },
    {
      "inputs": [
        {
          "internalType": "address",
          "name": "from",
          "type": "address"
        },
        {
          "internalType": "address",
          "name": "to",
          "type": "address"
        },
        {
          "internalType": "uint256",
          "name": "tokenId",
          "type": "uint256"
        },
        {
          "internalType": "bytes",
          "name": "data",
          "type": "bytes"
        }
      ],
      "name": "safeTransferFrom",
      "outputs": [],
      "stateMutability": "nonpayable",
      "type": "function"
    },
    {
      "inputs": [
        {
          "internalType": "address",
          "name": "operator",
          "type": "address"
        },
        {
          "internalType": "bool",
          "name": "approved",
          "type": "bool"
        }
      ],
      "name": "setApprovalForAll",
      "outputs": [],
      "stateMutability": "nonpayable",
      "type": "function"
    },
    {
      "inputs": [
        {
          "internalType": "bytes4",
          "name": "interfaceId",
          "type": "bytes4"
        }
      ],
      "name": "supportsInterface",
      "outputs": [
        {
          "internalType": "bool",
          "name": "",
          "type": "bool"
        }
      ],
      "stateMutability": "view",
      "type": "function"
    },
    {
      "inputs": [],
      "name": "symbol",
      "outputs": [
        {
          "internalType": "string",
          "name": "",
          "type": "string"
        }
      ],
      "stateMutability": "view",
      "type": "function"
    },
    {
      "inputs": [
        {
          "internalType": "uint256",
          "name": "tokenId",
          "type": "uint256"
        }
      ],
      "name": "tokenURI",
      "outputs": [
        {
          "internalType": "string",
          "name": "",
          "type": "string"
        }
      ],
      "stateMutability": "view",
      "type": "function"
    },
    {
      "inputs": [
        {
          "internalType": "address",
          "name": "from",
          "type": "address"
        },
        {
          "internalType": "address",
          "name": "to",
          "type": "address"
        },
        {
          "internalType": "uint256",
          "name": "tokenId",
          "type": "uint256"
        }
      ],
      "name": "transferFrom",
      "outputs": [],
      "stateMutability": "nonpayable",
      "type": "function"
    },
    {
      "inputs": [
        {
          "internalType": "address",
          "name": "newOwner",
          "type": "address"
        }
      ],
      "name": "transferOwnership",
      "outputs": [],
      "stateMutability": "nonpayable",
      "type": "function"
    }
  ],
  "bytecode": {
    "object": "0x60806040523480156200001157600080fd5b506040518060400160405280600a8152602001694d656469756d4970667360b01b815250604051806040016040528060028152602001614d4960f01b815250816000908162000061919062000199565b50600162000070828262000199565b5050506200008d620000876200009e60201b60201c565b620000a2565b662386f26fc1000060095562000265565b3390565b600780546001600160a01b038381166001600160a01b0319831681179093556040519116919082907f8be0079c531659141344cd1fd0a4f28419497f9722a3daafe3b4186f6b6457e090600090a35050565b634e487b7160e01b600052604160045260246000fd5b600181811c908216806200011f57607f821691505b6020821081036200014057634e487b7160e01b600052602260045260246000fd5b50919050565b601f8211156200019457600081815260208120601f850160051c810160208610156200016f5750805b601f850160051c820191505b8181101562000190578281556001016200017b565b5050505b505050565b81516001600160401b03811115620001b557620001b5620000f4565b620001cd81620001c684546200010a565b8462000146565b602080601f831160018114620002055760008415620001ec5750858301515b600019600386901b1c1916600185901b17855562000190565b600085815260208120601f198616915b82811015620002365788860151825594840194600190910190840162000215565b5085821015620002555787850151600019600388901b60f8161c191681555b5050505050600190811b01905550565b61194480620002756000396000f3fe6080604052600436106101095760003560e01c80638da5cb5b11610095578063b88d4fde11610064578063b88d4fde146102cb578063c87b56dd146102eb578063d204c45e1461030b578063e985e9c51461031e578063f2fde38b1461033e57600080fd5b80638da5cb5b1461026257806395d89b41146102805780639af1d35a14610295578063a22cb465146102ab57600080fd5b806323b872dd116100dc57806323b872dd146101bf57806342842e0e146101df5780636352211e146101ff57806370a082311461021f578063715018a61461024d57600080fd5b806301ffc9a71461010e57806306fdde0314610143578063081812fc14610165578063095ea7b31461019d575b600080fd5b34801561011a57600080fd5b5061012e6101293660046112e5565b61035e565b60405190151581526020015b60405180910390f35b34801561014f57600080fd5b506101586103b0565b60405161013a9190611352565b34801561017157600080fd5b50610185610180366004611365565b610442565b6040516001600160a01b03909116815260200161013a565b3480156101a957600080fd5b506101bd6101b836600461139a565b610469565b005b3480156101cb57600080fd5b506101bd6101da3660046113c4565b610583565b3480156101eb57600080fd5b506101bd6101fa3660046113c4565b6105b4565b34801561020b57600080fd5b5061018561021a366004611365565b6105cf565b34801561022b57600080fd5b5061023f61023a366004611400565b61062f565b60405190815260200161013a565b34801561025957600080fd5b506101bd6106b5565b34801561026e57600080fd5b506007546001600160a01b0316610185565b34801561028c57600080fd5b506101586106c9565b3480156102a157600080fd5b5061023f60095481565b3480156102b757600080fd5b506101bd6102c636600461141b565b6106d8565b3480156102d757600080fd5b506101bd6102e63660046114e3565b6106e7565b3480156102f757600080fd5b50610158610306366004611365565b61071f565b6101bd61031936600461155f565b61072a565b34801561032a57600080fd5b5061012e6103393660046115c1565b610813565b34801561034a57600080fd5b506101bd610359366004611400565b610841565b60006001600160e01b031982166380ac58cd60e01b148061038f57506001600160e01b03198216635b5e139f60e01b145b806103aa57506301ffc9a760e01b6001600160e01b03198316145b92915050565b6060600080546103bf906115f4565b80601f01602080910402602001604051908101604052809291908181526020018280546103eb906115f4565b80156104385780601f1061040d57610100808354040283529160200191610438565b820191906000526020600020905b81548152906001019060200180831161041b57829003601f168201915b5050505050905090565b600061044d826108ba565b506000908152600460205260409020546001600160a01b031690565b6000610474826105cf565b9050806001600160a01b0316836001600160a01b0316036104e65760405162461bcd60e51b815260206004820152602160248201527f4552433732313a20617070726f76616c20746f2063757272656e74206f776e656044820152603960f91b60648201526084015b60405180910390fd5b336001600160a01b038216148061050257506105028133610813565b6105745760405162461bcd60e51b815260206004820152603e60248201527f4552433732313a20617070726f76652063616c6c6572206973206e6f7420746f60448201527f6b656e206f776e6572206e6f7220617070726f76656420666f7220616c6c000060648201526084016104dd565b61057e8383610919565b505050565b61058d3382610987565b6105a95760405162461bcd60e51b81526004016104dd9061162e565b61057e8383836109e6565b61057e838383604051806020016040528060008152506106e7565b6000818152600260205260408120546001600160a01b0316806103aa5760405162461bcd60e51b8152602060048201526018602482015277115490cdcc8c4e881a5b9d985b1a59081d1bdad95b88125160421b60448201526064016104dd565b60006001600160a01b0382166106995760405162461bcd60e51b815260206004820152602960248201527f4552433732313a2061646472657373207a65726f206973206e6f7420612076616044820152683634b21037bbb732b960b91b60648201526084016104dd565b506001600160a01b031660009081526003602052604090205490565b6106bd610b82565b6106c76000610bdc565b565b6060600180546103bf906115f4565b6106e3338383610c2e565b5050565b6106f13383610987565b61070d5760405162461bcd60e51b81526004016104dd9061162e565b61071984848484610cfc565b50505050565b60606103aa82610d2f565b60095434101561076d5760405162461bcd60e51b815260206004820152600e60248201526d09cdee8408adcdeeaced0408ae8d60931b60448201526064016104dd565b6007546009546040516001600160a01b039092169181156108fc0291906000818181858888f193505050501580156107a9573d6000803e3d6000fd5b5060006107b560085490565b90506107c5600880546001019055565b6107cf8382610e37565b6107d98183610e51565b4780156107195760405133904780156108fc02916000818181858888f1935050505015801561080c573d6000803e3d6000fd5b5050505050565b6001600160a01b03918216600090815260056020908152604080832093909416825291909152205460ff1690565b610849610b82565b6001600160a01b0381166108ae5760405162461bcd60e51b815260206004820152602660248201527f4f776e61626c653a206e6577206f776e657220697320746865207a65726f206160448201526564647265737360d01b60648201526084016104dd565b6108b781610bdc565b50565b6000818152600260205260409020546001600160a01b03166108b75760405162461bcd60e51b8152602060048201526018602482015277115490cdcc8c4e881a5b9d985b1a59081d1bdad95b88125160421b60448201526064016104dd565b600081815260046020526040902080546001600160a01b0319166001600160a01b038416908117909155819061094e826105cf565b6001600160a01b03167f8c5be1e5ebec7d5bd14f71427d1e84f3dd0314c0f7b2291e5b200ac8c7c3b92560405160405180910390a45050565b600080610993836105cf565b9050806001600160a01b0316846001600160a01b031614806109ba57506109ba8185610813565b806109de5750836001600160a01b03166109d384610442565b6001600160a01b0316145b949350505050565b826001600160a01b03166109f9826105cf565b6001600160a01b031614610a5d5760405162461bcd60e51b815260206004820152602560248201527f4552433732313a207472616e736665722066726f6d20696e636f72726563742060448201526437bbb732b960d91b60648201526084016104dd565b6001600160a01b038216610abf5760405162461bcd60e51b8152602060048201526024808201527f4552433732313a207472616e7366657220746f20746865207a65726f206164646044820152637265737360e01b60648201526084016104dd565b610aca600082610919565b6001600160a01b0383166000908152600360205260408120805460019290610af3908490611692565b90915550506001600160a01b0382166000908152600360205260408120805460019290610b219084906116a5565b909155505060008181526002602052604080822080546001600160a01b0319166001600160a01b0386811691821790925591518493918716917fddf252ad1be2c89b69c2b068fc378daa952ba7f163c4a11628f55a4df523b3ef91a4505050565b6007546001600160a01b031633146106c75760405162461bcd60e51b815260206004820181905260248201527f4f776e61626c653a2063616c6c6572206973206e6f7420746865206f776e657260448201526064016104dd565b600780546001600160a01b038381166001600160a01b0319831681179093556040519116919082907f8be0079c531659141344cd1fd0a4f28419497f9722a3daafe3b4186f6b6457e090600090a35050565b816001600160a01b0316836001600160a01b031603610c8f5760405162461bcd60e51b815260206004820152601960248201527f4552433732313a20617070726f766520746f2063616c6c65720000000000000060448201526064016104dd565b6001600160a01b03838116600081815260056020908152604080832094871680845294825291829020805460ff191686151590811790915591519182527f17307eab39ab6107e8899845ad3d59bd9653f200f220920489ca2b5937696c31910160405180910390a3505050565b610d078484846109e6565b610d1384848484610ee4565b6107195760405162461bcd60e51b81526004016104dd906116b8565b6060610d3a826108ba565b60008281526006602052604081208054610d53906115f4565b80601f0160208091040260200160405190810160405280929190818152602001828054610d7f906115f4565b8015610dcc5780601f10610da157610100808354040283529160200191610dcc565b820191906000526020600020905b815481529060010190602001808311610daf57829003601f168201915b505050505090506000610dea60408051602081019091526000815290565b90508051600003610dfc575092915050565b815115610e2e578082604051602001610e1692919061170a565b60405160208183030381529060405292505050919050565b6109de84610fe5565b6106e3828260405180602001604052806000815250611059565b6000828152600260205260409020546001600160a01b0316610ecc5760405162461bcd60e51b815260206004820152602e60248201527f45524337323155524953746f726167653a2055524920736574206f66206e6f6e60448201526d32bc34b9ba32b73a103a37b5b2b760911b60648201526084016104dd565b600082815260066020526040902061057e8282611787565b60006001600160a01b0384163b15610fda57604051630a85bd0160e11b81526001600160a01b0385169063150b7a0290610f28903390899088908890600401611847565b6020604051808303816000875af1925050508015610f63575060408051601f3d908101601f19168201909252610f6091810190611884565b60015b610fc0573d808015610f91576040519150601f19603f3d011682016040523d82523d6000602084013e610f96565b606091505b508051600003610fb85760405162461bcd60e51b81526004016104dd906116b8565b805181602001fd5b6001600160e01b031916630a85bd0160e11b1490506109de565b506001949350505050565b6060610ff0826108ba565b600061100760408051602081019091526000815290565b905060008151116110275760405180602001604052806000815250611052565b806110318461108c565b60405160200161104292919061170a565b6040516020818303038152906040525b9392505050565b611063838361118d565b6110706000848484610ee4565b61057e5760405162461bcd60e51b81526004016104dd906116b8565b6060816000036110b35750506040805180820190915260018152600360fc1b602082015290565b8160005b81156110dd57806110c7816118a1565b91506110d69050600a836118d0565b91506110b7565b60008167ffffffffffffffff8111156110f8576110f8611457565b6040519080825280601f01601f191660200182016040528015611122576020820181803683370190505b5090505b84156109de57611137600183611692565b9150611144600a866118e4565b61114f9060306116a5565b60f81b818381518110611164576111646118f8565b60200101906001600160f81b031916908160001a905350611186600a866118d0565b9450611126565b6001600160a01b0382166111e35760405162461bcd60e51b815260206004820181905260248201527f4552433732313a206d696e7420746f20746865207a65726f206164647265737360448201526064016104dd565b6000818152600260205260409020546001600160a01b0316156112485760405162461bcd60e51b815260206004820152601c60248201527f4552433732313a20746f6b656e20616c7265616479206d696e7465640000000060448201526064016104dd565b6001600160a01b03821660009081526003602052604081208054600192906112719084906116a5565b909155505060008181526002602052604080822080546001600160a01b0319166001600160a01b03861690811790915590518392907fddf252ad1be2c89b69c2b068fc378daa952ba7f163c4a11628f55a4df523b3ef908290a45050565b6001600160e01b0319811681146108b757600080fd5b6000602082840312156112f757600080fd5b8135611052816112cf565b60005b8381101561131d578181015183820152602001611305565b50506000910152565b6000815180845261133e816020860160208601611302565b601f01601f19169290920160200192915050565b6020815260006110526020830184611326565b60006020828403121561137757600080fd5b5035919050565b80356001600160a01b038116811461139557600080fd5b919050565b600080604083850312156113ad57600080fd5b6113b68361137e565b946020939093013593505050565b6000806000606084860312156113d957600080fd5b6113e28461137e565b92506113f06020850161137e565b9150604084013590509250925092565b60006020828403121561141257600080fd5b6110528261137e565b6000806040838503121561142e57600080fd5b6114378361137e565b91506020830135801515811461144c57600080fd5b809150509250929050565b634e487b7160e01b600052604160045260246000fd5b600067ffffffffffffffff8084111561148857611488611457565b604051601f8501601f19908116603f011681019082821181831017156114b0576114b0611457565b816040528093508581528686860111156114c957600080fd5b858560208301376000602087830101525050509392505050565b600080600080608085870312156114f957600080fd5b6115028561137e565b93506115106020860161137e565b925060408501359150606085013567ffffffffffffffff81111561153357600080fd5b8501601f8101871361154457600080fd5b6115538782356020840161146d565b91505092959194509250565b6000806040838503121561157257600080fd5b61157b8361137e565b9150602083013567ffffffffffffffff81111561159757600080fd5b8301601f810185136115a857600080fd5b6115b78582356020840161146d565b9150509250929050565b600080604083850312156115d457600080fd5b6115dd8361137e565b91506115eb6020840161137e565b90509250929050565b600181811c9082168061160857607f821691505b60208210810361162857634e487b7160e01b600052602260045260246000fd5b50919050565b6020808252602e908201527f4552433732313a2063616c6c6572206973206e6f7420746f6b656e206f776e6560408201526d1c881b9bdc88185c1c1c9bdd995960921b606082015260800190565b634e487b7160e01b600052601160045260246000fd5b818103818111156103aa576103aa61167c565b808201808211156103aa576103aa61167c565b60208082526032908201527f4552433732313a207472616e7366657220746f206e6f6e20455243373231526560408201527131b2b4bb32b91034b6b83632b6b2b73a32b960711b606082015260800190565b6000835161171c818460208801611302565b835190830190611730818360208801611302565b01949350505050565b601f82111561057e57600081815260208120601f850160051c810160208610156117605750805b601f850160051c820191505b8181101561177f5782815560010161176c565b505050505050565b815167ffffffffffffffff8111156117a1576117a1611457565b6117b5816117af84546115f4565b84611739565b602080601f8311600181146117ea57600084156117d25750858301515b600019600386901b1c1916600185901b17855561177f565b600085815260208120601f198616915b82811015611819578886015182559484019460019091019084016117fa565b50858210156118375787850151600019600388901b60f8161c191681555b5050505050600190811b01905550565b6001600160a01b038581168252841660208201526040810183905260806060820181905260009061187a90830184611326565b9695505050505050565b60006020828403121561189657600080fd5b8151611052816112cf565b6000600182016118b3576118b361167c565b5060010190565b634e487b7160e01b600052601260045260246000fd5b6000826118df576118df6118ba565b500490565b6000826118f3576118f36118ba565b500690565b634e487b7160e01b600052603260045260246000fdfea264697066735822122030ade8b157822ebd456f3760981e9bea3a69cf2c8691f7e082c3e471ab44be0364736f6c63430008100033",
    "linkReferences": {}
  },
  "methodIdentifiers": {
    "approve(address,uint256)": "095ea7b3",
    "balanceOf(address)": "70a08231",
    "fees()": "9af1d35a",
    "getApproved(uint256)": "081812fc",
    "isApprovedForAll(address,address)": "e985e9c5",
    "name()": "06fdde03",
    "owner()": "8da5cb5b",
    "ownerOf(uint256)": "6352211e",
    "renounceOwnership()": "715018a6",
    "safeMint(address,string)": "d204c45e",
    "safeTransferFrom(address,address,uint256)": "42842e0e",
    "safeTransferFrom(address,address,uint256,bytes)": "b88d4fde",
    "setApprovalForAll(address,bool)": "a22cb465",
    "supportsInterface(bytes4)": "01ffc9a7",
    "symbol()": "95d89b41",
    "tokenURI(uint256)": "c87b56dd",
    "transferFrom(address,address,uint256)": "23b872dd",
    "transferOwnership(address)": "f2fde38b"
  },
  "id": 18
}